{
  "contractName": "CarMaintenance",
  "abi": [
    {
      "inputs": [],
      "stateMutability": "nonpayable",
      "type": "constructor"
    },
    {
      "anonymous": false,
      "inputs": [
        {
          "indexed": true,
          "internalType": "string",
          "name": "matricule",
          "type": "string"
        },
        {
          "indexed": false,
          "internalType": "uint256",
          "name": "date",
          "type": "uint256"
        },
        {
          "indexed": false,
          "internalType": "uint256",
          "name": "kilometrage",
          "type": "uint256"
        },
        {
          "indexed": false,
          "internalType": "string",
          "name": "typeIntervention",
          "type": "string"
        },
        {
          "indexed": false,
          "internalType": "address",
          "name": "garage",
          "type": "address"
        }
      ],
      "name": "InterventionAjoutee",
      "type": "event"
    },
    {
      "inputs": [
        {
          "internalType": "address",
          "name": "",
          "type": "address"
        }
      ],
      "name": "garagesAutorises",
      "outputs": [
        {
          "internalType": "bool",
          "name": "",
          "type": "bool"
        }
      ],
      "stateMutability": "view",
      "type": "function",
      "constant": true
    },
    {
      "inputs": [
        {
          "internalType": "string",
          "name": "",
          "type": "string"
        },
        {
          "internalType": "uint256",
          "name": "",
          "type": "uint256"
        }
      ],
      "name": "historiqueVehicules",
      "outputs": [
        {
          "internalType": "uint256",
          "name": "date",
          "type": "uint256"
        },
        {
          "internalType": "uint256",
          "name": "kilometrage",
          "type": "uint256"
        },
        {
          "internalType": "string",
          "name": "typeIntervention",
          "type": "string"
        },
        {
          "internalType": "address",
          "name": "garage",
          "type": "address"
        }
      ],
      "stateMutability": "view",
      "type": "function",
      "constant": true
    },
    {
      "inputs": [],
      "name": "proprietaire",
      "outputs": [
        {
          "internalType": "address",
          "name": "",
          "type": "address"
        }
      ],
      "stateMutability": "view",
      "type": "function",
      "constant": true
    },
    {
      "inputs": [
        {
          "internalType": "address",
          "name": "_garage",
          "type": "address"
        }
      ],
      "name": "autoriserGarage",
      "outputs": [],
      "stateMutability": "nonpayable",
      "type": "function"
    },
    {
      "inputs": [
        {
          "internalType": "string",
          "name": "_matricule",
          "type": "string"
        },
        {
          "internalType": "uint256",
          "name": "_kilometrage",
          "type": "uint256"
        },
        {
          "internalType": "string",
          "name": "_typeIntervention",
          "type": "string"
        }
      ],
      "name": "addIntervention",
      "outputs": [],
      "stateMutability": "nonpayable",
      "type": "function"
    },
    {
      "inputs": [
        {
          "internalType": "string",
          "name": "_matricule",
          "type": "string"
        }
      ],
      "name": "getHistory",
      "outputs": [
        {
          "components": [
            {
              "internalType": "uint256",
              "name": "date",
              "type": "uint256"
            },
            {
              "internalType": "uint256",
              "name": "kilometrage",
              "type": "uint256"
            },
            {
              "internalType": "string",
              "name": "typeIntervention",
              "type": "string"
            },
            {
              "internalType": "address",
              "name": "garage",
              "type": "address"
            }
          ],
          "internalType": "struct CarMaintenance.Intervention[]",
          "name": "",
          "type": "tuple[]"
        }
      ],
      "stateMutability": "view",
      "type": "function",
      "constant": true
    }
  ],
  "bytecode": "0x608060405234801561000f575f80fd5b503360025f6101000a81548173ffffffffffffffffffffffffffffffffffffffff021916908373ffffffffffffffffffffffffffffffffffffffff1602179055506001805f3373ffffffffffffffffffffffffffffffffffffffff1673ffffffffffffffffffffffffffffffffffffffff1681526020019081526020015f205f6101000a81548160ff0219169083151502179055506110fa806100b15f395ff3fe608060405234801561000f575f80fd5b5060043610610060575f3560e01c806304c9bf811461006457806379583ee5146100805780638202d59b1461009e5780639fc5581e146100ba578063bae89896146100ed578063e360736e1461011d575b5f80fd5b61007e60048036038101906100799190610723565b61014d565b005b610088610233565b604051610095919061075d565b60405180910390f35b6100b860048036038101906100b391906108e5565b610258565b005b6100d460048036038101906100cf919061096d565b610428565b6040516100e49493929190610a50565b60405180910390f35b61010760048036038101906101029190610723565b61052a565b6040516101149190610ab4565b60405180910390f35b61013760048036038101906101329190610acd565b610547565b6040516101449190610c95565b60405180910390f35b60025f9054906101000a900473ffffffffffffffffffffffffffffffffffffffff1673ffffffffffffffffffffffffffffffffffffffff163373ffffffffffffffffffffffffffffffffffffffff16146101dc576040517f08c379a00000000000000000000000000000000000000000000000000000000081526004016101d390610d25565b60405180910390fd5b6001805f8373ffffffffffffffffffffffffffffffffffffffff1673ffffffffffffffffffffffffffffffffffffffff1681526020019081526020015f205f6101000a81548160ff02191690831515021790555050565b60025f9054906101000a900473ffffffffffffffffffffffffffffffffffffffff1681565b60015f3373ffffffffffffffffffffffffffffffffffffffff1673ffffffffffffffffffffffffffffffffffffffff1681526020019081526020015f205f9054906101000a900460ff166102e1576040517f08c379a00000000000000000000000000000000000000000000000000000000081526004016102d890610d8d565b60405180910390fd5b5f60405180608001604052804281526020018481526020018381526020013373ffffffffffffffffffffffffffffffffffffffff1681525090505f8460405161032a9190610de5565b908152602001604051809103902081908060018154018082558091505060019003905f5260205f2090600402015f909190919091505f820151815f01556020820151816001015560408201518160020190816103869190610ff5565b506060820151816003015f6101000a81548173ffffffffffffffffffffffffffffffffffffffff021916908373ffffffffffffffffffffffffffffffffffffffff1602179055505050836040516103dd9190610de5565b60405180910390207f8b4cd67c3fece4725efcc9c3bd27a49cad19a076d65fa4a7c1479bd3e5bfd86b4285853360405161041a9493929190610a50565b60405180910390a250505050565b5f828051602081018201805184825260208301602085012081835280955050505050508181548110610458575f80fd5b905f5260205f2090600402015f9150915050805f01549080600101549080600201805461048490610e28565b80601f01602080910402602001604051908101604052809291908181526020018280546104b090610e28565b80156104fb5780601f106104d2576101008083540402835291602001916104fb565b820191905f5260205f20905b8154815290600101906020018083116104de57829003601f168201915b505050505090806003015f9054906101000a900473ffffffffffffffffffffffffffffffffffffffff16905084565b6001602052805f5260405f205f915054906101000a900460ff1681565b60605f826040516105589190610de5565b9081526020016040518091039020805480602002602001604051908101604052809291908181526020015f905b828210156106ad578382905f5260205f2090600402016040518060800160405290815f8201548152602001600182015481526020016002820180546105c990610e28565b80601f01602080910402602001604051908101604052809291908181526020018280546105f590610e28565b80156106405780601f1061061757610100808354040283529160200191610640565b820191905f5260205f20905b81548152906001019060200180831161062357829003601f168201915b50505050508152602001600382015f9054906101000a900473ffffffffffffffffffffffffffffffffffffffff1673ffffffffffffffffffffffffffffffffffffffff1673ffffffffffffffffffffffffffffffffffffffff168152505081526020019060010190610585565b505050509050919050565b5f604051905090565b5f80fd5b5f80fd5b5f73ffffffffffffffffffffffffffffffffffffffff82169050919050565b5f6106f2826106c9565b9050919050565b610702816106e8565b811461070c575f80fd5b50565b5f8135905061071d816106f9565b92915050565b5f60208284031215610738576107376106c1565b5b5f6107458482850161070f565b91505092915050565b610757816106e8565b82525050565b5f6020820190506107705f83018461074e565b92915050565b5f80fd5b5f80fd5b5f601f19601f8301169050919050565b7f4e487b71000000000000000000000000000000000000000000000000000000005f52604160045260245ffd5b6107c48261077e565b810181811067ffffffffffffffff821117156107e3576107e261078e565b5b80604052505050565b5f6107f56106b8565b905061080182826107bb565b919050565b5f67ffffffffffffffff8211156108205761081f61078e565b5b6108298261077e565b9050602081019050919050565b828183375f83830152505050565b5f61085661085184610806565b6107ec565b9050828152602081018484840111156108725761087161077a565b5b61087d848285610836565b509392505050565b5f82601f83011261089957610898610776565b5b81356108a9848260208601610844565b91505092915050565b5f819050919050565b6108c4816108b2565b81146108ce575f80fd5b50565b5f813590506108df816108bb565b92915050565b5f805f606084860312156108fc576108fb6106c1565b5b5f84013567ffffffffffffffff811115610919576109186106c5565b5b61092586828701610885565b9350506020610936868287016108d1565b925050604084013567ffffffffffffffff811115610957576109566106c5565b5b61096386828701610885565b9150509250925092565b5f8060408385031215610983576109826106c1565b5b5f83013567ffffffffffffffff8111156109a05761099f6106c5565b5b6109ac85828601610885565b92505060206109bd858286016108d1565b9150509250929050565b6109d0816108b2565b82525050565b5f81519050919050565b5f82825260208201905092915050565b5f5b83811015610a0d5780820151818401526020810190506109f2565b5f8484015250505050565b5f610a22826109d6565b610a2c81856109e0565b9350610a3c8185602086016109f0565b610a458161077e565b840191505092915050565b5f608082019050610a635f8301876109c7565b610a7060208301866109c7565b8181036040830152610a828185610a18565b9050610a91606083018461074e565b95945050505050565b5f8115159050919050565b610aae81610a9a565b82525050565b5f602082019050610ac75f830184610aa5565b92915050565b5f60208284031215610ae257610ae16106c1565b5b5f82013567ffffffffffffffff811115610aff57610afe6106c5565b5b610b0b84828501610885565b91505092915050565b5f81519050919050565b5f82825260208201905092915050565b5f819050602082019050919050565b610b46816108b2565b82525050565b5f82825260208201905092915050565b5f610b66826109d6565b610b708185610b4c565b9350610b808185602086016109f0565b610b898161077e565b840191505092915050565b610b9d816106e8565b82525050565b5f608083015f830151610bb85f860182610b3d565b506020830151610bcb6020860182610b3d565b5060408301518482036040860152610be38282610b5c565b9150506060830151610bf86060860182610b94565b508091505092915050565b5f610c0e8383610ba3565b905092915050565b5f602082019050919050565b5f610c2c82610b14565b610c368185610b1e565b935083602082028501610c4885610b2e565b805f5b85811015610c835784840389528151610c648582610c03565b9450610c6f83610c16565b925060208a01995050600181019050610c4b565b50829750879550505050505092915050565b5f6020820190508181035f830152610cad8184610c22565b905092915050565b7f5365756c206c652070726f7072696574616972652070657574206175746f72695f8201527f7365720000000000000000000000000000000000000000000000000000000000602082015250565b5f610d0f6023836109e0565b9150610d1a82610cb5565b604082019050919050565b5f6020820190508181035f830152610d3c81610d03565b9050919050565b7f4f6e6c7920417574686f72697a656420476172616765000000000000000000005f82015250565b5f610d776016836109e0565b9150610d8282610d43565b602082019050919050565b5f6020820190508181035f830152610da481610d6b565b9050919050565b5f81905092915050565b5f610dbf826109d6565b610dc98185610dab565b9350610dd98185602086016109f0565b80840191505092915050565b5f610df08284610db5565b915081905092915050565b7f4e487b71000000000000000000000000000000000000000000000000000000005f52602260045260245ffd5b5f6002820490506001821680610e3f57607f821691505b602082108103610e5257610e51610dfb565b5b50919050565b5f819050815f5260205f209050919050565b5f6020601f8301049050919050565b5f82821b905092915050565b5f60088302610eb47fffffffffffffffffffffffffffffffffffffffffffffffffffffffffffffffff82610e79565b610ebe8683610e79565b95508019841693508086168417925050509392505050565b5f819050919050565b5f610ef9610ef4610eef846108b2565b610ed6565b6108b2565b9050919050565b5f819050919050565b610f1283610edf565b610f26610f1e82610f00565b848454610e85565b825550505050565b5f90565b610f3a610f2e565b610f45818484610f09565b505050565b5b81811015610f6857610f5d5f82610f32565b600181019050610f4b565b5050565b601f821115610fad57610f7e81610e58565b610f8784610e6a565b81016020851015610f96578190505b610faa610fa285610e6a565b830182610f4a565b50505b505050565b5f82821c905092915050565b5f610fcd5f1984600802610fb2565b1980831691505092915050565b5f610fe58383610fbe565b9150826002028217905092915050565b610ffe826109d6565b67ffffffffffffffff8111156110175761101661078e565b5b6110218254610e28565b61102c828285610f6c565b5f60209050601f83116001811461105d575f841561104b578287015190505b6110558582610fda565b8655506110bc565b601f19841661106b86610e58565b5f5b828110156110925784890151825560018201915060208501945060208101905061106d565b868310156110af57848901516110ab601f891682610fbe565b8355505b6001600288020188555050505b50505050505056fea26469706673582212206534ade78d028c55da2e113439ed46326e40e7542bc64f8f8856702522fbc9ed64736f6c63430008150033",
  "immutableReferences": {},
  "source": "// SPDX-License-Identifier: MIT\npragma solidity ^0.8.20;\n\ncontract CarMaintenance {\n    \n    struct Intervention {\n        uint256 date;\n        uint256 kilometrage;\n        string typeIntervention;\n        address garage;\n    }\n\n    mapping(string => Intervention[]) public historiqueVehicules;\n\n    mapping(address => bool) public garagesAutorises;\n\n    address public proprietaire;\n\n    event InterventionAjoutee(\n        string indexed matricule,\n        uint256 date,\n        uint256 kilometrage,\n        string typeIntervention,\n        address garage\n    );\n\n    modifier onlyAuthorizedGarage() {\n        require(garagesAutorises[msg.sender], \"Only Authorized Garage\");\n        _;\n    }\n\n    constructor() {\n        proprietaire = msg.sender;\n        garagesAutorises[msg.sender] = true;\n    }\n\n    function autoriserGarage(address _garage) external {\n        require(msg.sender == proprietaire, \"Seul le proprietaire peut autoriser\");\n        garagesAutorises[_garage] = true;\n    }\n\n    function addIntervention(\n        string memory _matricule,\n        uint256 _kilometrage,\n        string memory _typeIntervention\n    ) external onlyAuthorizedGarage {\n        Intervention memory nouvelle = Intervention({\n            date: block.timestamp,\n            kilometrage: _kilometrage,\n            typeIntervention: _typeIntervention,\n            garage: msg.sender\n        });\n\n        historiqueVehicules[_matricule].push(nouvelle);\n\n        emit InterventionAjoutee(\n            _matricule,\n            block.timestamp,\n            _kilometrage,\n            _typeIntervention,\n            msg.sender\n        );\n    }\n\n    function getHistory(string memory _matricule) \n        external \n        view \n        returns (Intervention[] memory) \n    {\n        return historiqueVehicules[_matricule];\n    }\n}",
  "sourcePath": "C:\\car-maintenance\\contracts\\CarMaintenance.sol",
  "compiler": {
    "name": "solc",
    "version": "0.8.21+commit.d9974bed.Emscripten.clang"
  },
  "schemaVersion": "3.4.16",
  "updatedAt": "2026-04-09T09:42:47.058Z",
  "networkType": "ethereum",
  "devdoc": {
    "kind": "dev",
    "methods": {},
    "version": 1
  },
  "userdoc": {
    "kind": "user",
    "methods": {},
    "version": 1
  }
}